S01500004652494447455F42555A5A45522E737265631D
S11300000EC028C027C026C025C024C023C022C0DB
S113001021C020C029C01EC01DC01CC01BC011248B
S11300201FBECFE5D2E0DEBFCDBF10E0A0E6B0E05A
S1130030ECE9F7E002C005900D92A037B107D9F7BB
S113004020E0A0E7B0E001C01D92A337B207E1F7BA
S11300500DD2A2C3D5CF82E08ABD83E083BF8DE7F2
S113006089BD80E189BF08951F920F920FB60F9248
S113007011242F938F939F9380917200811109C053
S1130080809170009091710001969093710080931B
S113009070008091700090917100893E934018F037
S11300A081E0809372009F918F912F910F900FBEEA
S11300B00F901F901895BB9ABC9A089520E030E0E9
S11300C005C00000000000002F5F3F4F28173907CC
S11300D0C1F70895CF92DF92EF92FF921F93CF93CF
S11300E0DF93613061F48156883048F4E82FF0E002
S11300F0EE0FFF1FE05AFF4FC081D18102C0C8EE4E
S1130100D3E0BA0180E090E0B9D26B017C01BE017A
S113011080E090E0B3D220E030E04AE754E41AD221
S11301209B01AC01C701B60115D27CD26B01E12C55
S1130130F12C10E108C0CE01C1DF88B3812788BB50
S11301408FEFE81AF80AEC14FD04A9F7DF91CF91B8
S11301501F91FF90EF90DF90CF9008954CE251E013
S113016061E087E6B7DF88EE9DEFA8DF4CE251E05F
S113017061E085E6AFDF88EE9DEFA0DF48E552E061
S113018061E085E6A7DF88EE9DEF98DF4CE251E061
S113019061E086E69FDF88EE9DEF90DF4CE251E060
S11301A061E084E697DF88EE9DEF88DF48E552E062
S11301B061E084E68FDF88EE9DEF80DF4CE251E062
S11301C061E083E687DF88EE9DEF78DF4CE251E063
S11301D061E084E67FDF88EE9DEF70DF4CE251E062
S11301E061E085E677DF88EE9DEF68DF4CE251E061
S11301F061E086E66FDF88EE9DEF60DF4CE251E060
S113020061E087E667DF88EE9DEF58DF4CE251E05E
S113021061E087E65FDF88EE9DEF50DF48E552E05E
S113022061E087E657DF88EE9DEF48DF4CE251E05E
S113023061E087E64FDF88EE9DEF40DF4CE251E05E
S113024061E085E647DF88EE9DEF38DF48E552E060
S113025061E085E63FDF88EE9DEF30DF4CE251E060
S113026061E086E637DF88EE9DEF28DF4CE251E05F
S113027061E084E62FDF88EE9DEF20DF48E552E061
S113028061E084E627DF88EE9DEF18DF4CE251E061
S113029061E083E61FDF88EE9DEF10DF4CE251E062
S11302A061E085E617DF88EE9DEF08DF4CE251E060
S11302B061E087E60FDF88EE9DEF00DF4CE251E05E
S11302C061E087E607DF88EE9DEFF8DE40EB54E05F
S11302D061E083E6FFDE88EE9DEFF0DE4CE251E064
S11302E061E084E6F7DE88EE9DEFE8DE4CE251E063
S11302F061E084E6EFDE88EE9DEFE0DE4CE251E063
S113030061E084E6E7DE88EE9DEFD8DE4CE251E062
S113031061E084E6DFDE88EE9DEFD0DE4CE251E062
S113032061E084E6D7DE88EE9DEFC8DE4CE251E062
S113033061E085E6CFDE88EE9DEFC0DE48E552E061
S113034061E086E6C7DE88EE9DEFB8DE4CE251E060
S113035061E085E6BFDE88EE9DEFB0DE4CE251E061
S113036061E085E6B7DE88EE9DEFA8DE4CE251E061
S113037061E085E6AFDE88EE9DEFA0DE4CE251E061
S113038061E085E6A7DE88EE9DEF98DE4CE251E061
S113039061E085E69FDE88EE9DEF90DE4CE251E061
S11303A061E086E697DE88EE9DEF88DE48E552E060
S11303B061E087E68FDE88EE9DEF80DE4CE251E05F
S11303C061E087E687DE88EE9DEF78DE4CE251E05F
S11303D061E085E67FDE88EE9DEF70DE48E552E061
S11303E061E085E677DE88EE9DEF68DE4CE251E061
S11303F061E086E66FDE88EE9DEF60DE4CE251E060
S113040061E084E667DE88EE9DEF58DE48E552E061
S113041061E084E65FDE88EE9DEF50DE4CE251E061
S113042061E083E657DE88EE9DEF48DE4CE251E062
S113043061E085E64FDE88EE9DEF40DE4CE251E060
S113044061E087E647DE88EE9DEF38DE4CE251E05E
S113045061E087E63FDE88EE9DEF30DE40EB54E05E
S113046061E083E637DE88EE9DEF28CE24DEF3DDFF
S1130470789410E0A12CB12CC12CD12CE12CF12CBE
S113048000E0C0E0D0E080917200882339F021962A
S1130490109271001092700010927200011109C044
S11304A0CF30D10531F448EC50E061E083E612DE50
S11304B001E0F1100AC0C131D10539F448EC50E033
S11304C061E084E607DEFF24F394E1100AC0C3313F
S11304D0D10539F448EC50E061E085E6FBDDEE241B
S11304E0E394D1100AC0C531D10539F448EC50E089
S11304F061E086E6EFDDDD24D394C1100AC0C73184
S1130500D10539F448EC50E061E087E6E3DDCC2422
S1130510C394B1100AC0C931D10539F448EC50E094
S113052061E081E6D7DDBB24B394A1100AC0CB31CE
S1130530D10539F448EC50E061E088E6CBDDAA242B
S1130540A3941111A0CFCD32D10509F09CCF06DEC2
S113055011E099CF0CD0E6C0DED040F0D5D030F019
S113056021F45F3F19F0C7C0511110C1CAC0EBD0CC
S113057098F39923C9F35523B1F3951B550BBB2766
S1130580AA2762177307840738F09F5F5F4F220F13
S1130590331F441FAA1FA9F333D00E2E3AF0E0E80C
S11305A030D091505040E695001CCAF729D0FE2F58
S11305B027D0660F771F881FBB1F261737074807EA
S11305C0AB07B0E809F0BB0B802DBF01FF279358A0
S11305D05F4F2AF09E3F510568F08DC0D7C05F3F42
S11305E0ECF3983EDCF3869577956795B795F79588
S11305F09F5FC9F7880F911D9695879597F9089580
S1130600E1E0660F771F881FBB1F6217730784071B
S1130610BA0720F0621B730B840BBA0BEE1F88F72A
S1130620E095089598D088F09F5790F0B92F9927B6
S1130630B751A0F0D1F0660F771F881F991F1AF0E9
S1130640BA95C9F712C0B13081F09FD0B1E00895D6
S11306509CC0672F782F8827B85F39F0B93FCCF357
S1130660869577956795B395D9F73EF490958095DF
S1130670709561957F4F8F4F9F4F0895E89409C0FF
S113068097FB3EF490958095709561957F4F8F4FC1
S11306909F4F9923A9F0F92F96E9BB279395F695D7
S11306A0879577956795B795F111F8CFFAF4BB0F55
S11306B011F460FF1BC06F5F7F4F8F4F9F4F16C0B9
S11306C0882311F096E911C0772321F09EE8872F43
S11306D0762F05C0662371F096E8862F70E060E0FF
S11306E02AF09A95660F771F881FDAF7880F969578
S11306F0879597F9089597F99F6780E870E060E01F
S113070008959FEF80EC089500240A9416161706A6
S113071018060906089500240A94121613061406EE
S113072005060895092E0394000C11F4882352F051
S1130730BB0F40F4BF2B11F460FF04C06F5F7F4F09
S11307408F4F9F4F089557FD9058440F551F59F0F0
S11307505F3F71F04795880F97FB991F61F09F3FAA
S113076079F087950895121613061406551FF2CFD3
S11307704695F1DF08C0161617061806991FF1CF23
S113078086957105610508940895E894BB2766274A
S10F07907727CB0197F90895F894FFCF68
S113079C0505E80372088507B4065306A305790416
S9030000FC
