:100000000EC028C027C026C025C024C023C022C0DF
:1000100021C020C029C01EC01DC01CC01BC011248F
:100020001FBECFE5D2E0DEBFCDBF10E0A0E6B0E05E
:10003000ECE5F4E002C005900D92AE36B107D9F7B9
:1000400020E0AEE6B0E001C01D92A837B207E1F7AC
:10005000ACD002C2D5CF82E08ABD83E083BF8AEFF5
:1000600089BD80E189BF08951F920F920FB60F924C
:1000700011242F938F939F9380917600811109C053
:100080008091720090917300019690937300809319
:10009000720080917700811109C080917400909165
:1000A00075000196909375008093740080917400A0
:1000B00090917500853F914018F081E08093770022
:1000C0008091720090917300893C910518F081E055
:1000D000809376009F918F912F910F900FBE0F907C
:1000E0001F9018950F931F93CF93DF9361E082E1E8
:1000F0007FD110926F00C7E0D0E001E010E049C06E
:1001000010926E002DC062E082E183D180916E007A
:100110009E01281B3109C801022E02C0880F991FB9
:100120000A94E2F7E0916F00F0E0E05AFF4F40815F
:1001300050E08423952302C0959587952A95E2F790
:1001400064E0892B19F082E153D102C082E161D1D0
:1001500062E082E14DD180916E008F5F80936E00EE
:1001600080916E00883078F280916F00863061F463
:1001700061E082E14ED18FE99FE00197F1F700C085
:10018000000061E082E134D180916F008F5F809345
:100190006F0080916F008E3008F4B2CF61E082E191
:1001A000DF91CF911F910F9134C179D0E2D053DF0D
:1001B000789468E780E0B3D060EF81E0B0D08FE35F
:1001C0009CE90197F1F700C000001FEFCFEBD7EBE0
:1001D00080917600882351F1809171008230A1F0E6
:1001E00028F4882349F08130B1F408C0843061F0EC
:1001F00048F0853081F40AC061E001C062E083E12B
:100200008ED009C068E0FBCF64E0F9CF62E083E103
:1002100086D010937100809171008F5F8093710080
:100220001092730010927200109276008091770005
:10023000882371F260E882E1FED08091700088230B
:1002400099F01092690010926A0010926B0010925F
:100250006C00C0936000D0936100D0936200C093A3
:1002600063001092700013C0109260001092610041
:100270001092620010926300C0936900D0936A00EC
:10028000D0936B00C0936C0081E0809370002ADFF4
:1002900010927500109274001092770099CF87B376
:1002A0008D6087BBB9980895C298C3980895C39A82
:1002B000089527E030E090E064E0AC01022E02C037
:1002C000559547950A94E2F740FF02C0C09A01C0D5
:1002D000C09848B3462748BB48B3462748BB21507F
:1002E000310958F7089527E030E080E0E4E041E08C
:1002F00050E098B39E2798BBBA01022E01C0660F4A
:100300000A94EAF7B19B02C0862B02C0609586234F
:1003100098B39E2798BB2150310958F708951F9331
:10032000CF93DF931F92CDB7DEB7182F6983BCDF61
:1003300080E4BFDF812FBDDF6981862FBADF0F9098
:10034000DF91CF911F91B3CF1F93CF93DF931F9274
:10035000CDB7DEB7182FA8DF81E4ABDF812FA9DF8F
:10036000C2DF8983A4DF89810F90DF91CF911F9134
:1003700008956FEF80E0D3DF6FEF81E0D0DF60E0C2
:1003800082E0CDDF60E083E0CADF60E084E0C7DFC9
:1003900060E085E0C4DF60E086E0C1DF60E087E028
:1003A000BEDF60E088E0BBDF60E089E0B8DF60E0EE
:1003B0008AE0B5DF60E08CE0B2DF60E08DE0AFDFC7
:1003C00060E08EE0ACDF60E08FE0A9DF60E080E11C
:1003D000A6DF60E081E1A3DF60E082E1A0DF60E012
:1003E00083E19DDF60E084E19ADF60E085E197CF03
:1003F0001F93CF93DF931F92CDB7DEB7182F69837A
:10040000A3DF6981682B812F0F90DF91CF911F911E
:1004100086CF1F93CF93DF931F92CDB7DEB7182FF0
:10042000698392DF698160956823812F0F90DF9146
:10043000CF911F9174CF1F93CF93DF931F92CDB7AE
:10044000DEB7182F698380DF69816827812F0F90BD
:0C045000DF91CF911F9163CFF894FFCF94
:0E045C0000000000000004000000000000018D
:00000001FF
